{
  "contractName": "Estate",
  "abi": [
    {
      "inputs": [],
      "payable": false,
      "stateMutability": "nonpayable",
      "type": "constructor"
    },
    {
      "constant": true,
      "inputs": [
        {
          "internalType": "address",
          "name": "",
          "type": "address"
        }
      ],
      "name": "AdminMapping",
      "outputs": [
        {
          "internalType": "uint256",
          "name": "id",
          "type": "uint256"
        },
        {
          "internalType": "address",
          "name": "addr",
          "type": "address"
        },
        {
          "internalType": "string",
          "name": "name",
          "type": "string"
        },
        {
          "internalType": "string",
          "name": "district",
          "type": "string"
        },
        {
          "internalType": "string",
          "name": "vdcMunicipality",
          "type": "string"
        }
      ],
      "payable": false,
      "stateMutability": "view",
      "type": "function"
    },
    {
      "constant": true,
      "inputs": [
        {
          "internalType": "address",
          "name": "",
          "type": "address"
        }
      ],
      "name": "UserMapping",
      "outputs": [
        {
          "internalType": "address",
          "name": "id",
          "type": "address"
        },
        {
          "internalType": "string",
          "name": "name",
          "type": "string"
        },
        {
          "internalType": "string",
          "name": "citizenshipNo",
          "type": "string"
        },
        {
          "internalType": "string",
          "name": "email",
          "type": "string"
        },
        {
          "internalType": "bool",
          "name": "isUserVerified",
          "type": "bool"
        }
      ],
      "payable": false,
      "stateMutability": "view",
      "type": "function"
    },
    {
      "constant": true,
      "inputs": [
        {
          "internalType": "uint256",
          "name": "",
          "type": "uint256"
        }
      ],
      "name": "lands",
      "outputs": [
        {
          "internalType": "address",
          "name": "oAddr",
          "type": "address"
        },
        {
          "internalType": "uint256",
          "name": "id",
          "type": "uint256"
        },
        {
          "internalType": "uint256",
          "name": "area",
          "type": "uint256"
        },
        {
          "internalType": "string",
          "name": "district",
          "type": "string"
        },
        {
          "internalType": "string",
          "name": "vdcMunicipality",
          "type": "string"
        },
        {
          "internalType": "uint256",
          "name": "wardNo",
          "type": "uint256"
        },
        {
          "internalType": "uint256",
          "name": "kittaNo",
          "type": "uint256"
        },
        {
          "internalType": "bool",
          "name": "isLandVerified",
          "type": "bool"
        }
      ],
      "payable": false,
      "stateMutability": "view",
      "type": "function"
    },
    {
      "constant": true,
      "inputs": [],
      "name": "landsCount",
      "outputs": [
        {
          "internalType": "uint256",
          "name": "",
          "type": "uint256"
        }
      ],
      "payable": false,
      "stateMutability": "view",
      "type": "function"
    },
    {
      "constant": true,
      "inputs": [],
      "name": "userCount",
      "outputs": [
        {
          "internalType": "uint256",
          "name": "",
          "type": "uint256"
        }
      ],
      "payable": false,
      "stateMutability": "view",
      "type": "function"
    },
    {
      "constant": true,
      "inputs": [],
      "name": "getter",
      "outputs": [
        {
          "internalType": "address",
          "name": "",
          "type": "address"
        }
      ],
      "payable": false,
      "stateMutability": "view",
      "type": "function"
    },
    {
      "constant": true,
      "inputs": [
        {
          "internalType": "address",
          "name": "_addr",
          "type": "address"
        }
      ],
      "name": "isContractOwner",
      "outputs": [
        {
          "internalType": "bool",
          "name": "",
          "type": "bool"
        }
      ],
      "payable": false,
      "stateMutability": "view",
      "type": "function"
    },
    {
      "constant": false,
      "inputs": [
        {
          "internalType": "address",
          "name": "_addr",
          "type": "address"
        }
      ],
      "name": "changeContractOwner",
      "outputs": [],
      "payable": false,
      "stateMutability": "nonpayable",
      "type": "function"
    },
    {
      "constant": false,
      "inputs": [
        {
          "internalType": "address",
          "name": "_addr",
          "type": "address"
        },
        {
          "internalType": "string",
          "name": "_name",
          "type": "string"
        },
        {
          "internalType": "string",
          "name": "_district",
          "type": "string"
        },
        {
          "internalType": "string",
          "name": "_vdcMunicipality",
          "type": "string"
        }
      ],
      "name": "addAdmin",
      "outputs": [],
      "payable": false,
      "stateMutability": "nonpayable",
      "type": "function"
    },
    {
      "constant": true,
      "inputs": [],
      "name": "ReturnAllAdminList",
      "outputs": [
        {
          "internalType": "address[]",
          "name": "",
          "type": "address[]"
        }
      ],
      "payable": false,
      "stateMutability": "view",
      "type": "function"
    },
    {
      "constant": true,
      "inputs": [
        {
          "internalType": "address",
          "name": "_addr",
          "type": "address"
        }
      ],
      "name": "isAdmin",
      "outputs": [
        {
          "internalType": "bool",
          "name": "",
          "type": "bool"
        }
      ],
      "payable": false,
      "stateMutability": "view",
      "type": "function"
    },
    {
      "constant": false,
      "inputs": [
        {
          "internalType": "address",
          "name": "_addr",
          "type": "address"
        }
      ],
      "name": "removeAdmin",
      "outputs": [],
      "payable": false,
      "stateMutability": "nonpayable",
      "type": "function"
    },
    {
      "constant": true,
      "inputs": [
        {
          "internalType": "address",
          "name": "_addr",
          "type": "address"
        }
      ],
      "name": "returnAdmin",
      "outputs": [
        {
          "internalType": "uint256",
          "name": "",
          "type": "uint256"
        },
        {
          "internalType": "string",
          "name": "",
          "type": "string"
        },
        {
          "internalType": "string",
          "name": "",
          "type": "string"
        },
        {
          "internalType": "string",
          "name": "",
          "type": "string"
        }
      ],
      "payable": false,
      "stateMutability": "view",
      "type": "function"
    },
    {
      "constant": true,
      "inputs": [
        {
          "internalType": "address",
          "name": "_addr",
          "type": "address"
        }
      ],
      "name": "viewAdminDetails",
      "outputs": [
        {
          "components": [
            {
              "internalType": "uint256",
              "name": "id",
              "type": "uint256"
            },
            {
              "internalType": "address",
              "name": "addr",
              "type": "address"
            },
            {
              "internalType": "string",
              "name": "name",
              "type": "string"
            },
            {
              "internalType": "string",
              "name": "district",
              "type": "string"
            },
            {
              "internalType": "string",
              "name": "vdcMunicipality",
              "type": "string"
            }
          ],
          "internalType": "struct Estate.Admin",
          "name": "",
          "type": "tuple"
        }
      ],
      "payable": false,
      "stateMutability": "view",
      "type": "function"
    },
    {
      "constant": true,
      "inputs": [
        {
          "internalType": "address",
          "name": "_addr",
          "type": "address"
        }
      ],
      "name": "isUserRegistered",
      "outputs": [
        {
          "internalType": "bool",
          "name": "",
          "type": "bool"
        }
      ],
      "payable": false,
      "stateMutability": "view",
      "type": "function"
    },
    {
      "constant": false,
      "inputs": [
        {
          "internalType": "address",
          "name": "_addr",
          "type": "address"
        },
        {
          "internalType": "string",
          "name": "_name",
          "type": "string"
        },
        {
          "internalType": "string",
          "name": "_citizenshipNo",
          "type": "string"
        },
        {
          "internalType": "string",
          "name": "_email",
          "type": "string"
        }
      ],
      "name": "registerUser",
      "outputs": [],
      "payable": false,
      "stateMutability": "nonpayable",
      "type": "function"
    },
    {
      "constant": false,
      "inputs": [
        {
          "internalType": "address",
          "name": "_userId",
          "type": "address"
        }
      ],
      "name": "verifyUser",
      "outputs": [],
      "payable": false,
      "stateMutability": "nonpayable",
      "type": "function"
    },
    {
      "constant": true,
      "inputs": [
        {
          "internalType": "address",
          "name": "id",
          "type": "address"
        }
      ],
      "name": "isUserVerified",
      "outputs": [
        {
          "internalType": "bool",
          "name": "",
          "type": "bool"
        }
      ],
      "payable": false,
      "stateMutability": "view",
      "type": "function"
    },
    {
      "constant": true,
      "inputs": [],
      "name": "ReturnAllUserList",
      "outputs": [
        {
          "internalType": "address[]",
          "name": "",
          "type": "address[]"
        }
      ],
      "payable": false,
      "stateMutability": "view",
      "type": "function"
    },
    {
      "constant": true,
      "inputs": [],
      "name": "ReturnUnverifiedUsersList",
      "outputs": [
        {
          "internalType": "address[]",
          "name": "",
          "type": "address[]"
        }
      ],
      "payable": false,
      "stateMutability": "view",
      "type": "function"
    },
    {
      "constant": true,
      "inputs": [
        {
          "internalType": "address",
          "name": "_addr",
          "type": "address"
        }
      ],
      "name": "viewUserDetails",
      "outputs": [
        {
          "components": [
            {
              "internalType": "address",
              "name": "id",
              "type": "address"
            },
            {
              "internalType": "string",
              "name": "name",
              "type": "string"
            },
            {
              "internalType": "string",
              "name": "citizenshipNo",
              "type": "string"
            },
            {
              "internalType": "string",
              "name": "email",
              "type": "string"
            },
            {
              "internalType": "bool",
              "name": "isUserVerified",
              "type": "bool"
            }
          ],
          "internalType": "struct Estate.User",
          "name": "",
          "type": "tuple"
        }
      ],
      "payable": false,
      "stateMutability": "view",
      "type": "function"
    },
    {
      "constant": false,
      "inputs": [
        {
          "internalType": "uint256",
          "name": "_area",
          "type": "uint256"
        },
        {
          "internalType": "string",
          "name": "_district",
          "type": "string"
        },
        {
          "internalType": "string",
          "name": "_vdcMunicipality",
          "type": "string"
        },
        {
          "internalType": "uint256",
          "name": "_wardNo",
          "type": "uint256"
        },
        {
          "internalType": "uint256",
          "name": "_kittaNo",
          "type": "uint256"
        }
      ],
      "name": "addLand",
      "outputs": [],
      "payable": false,
      "stateMutability": "nonpayable",
      "type": "function"
    },
    {
      "constant": true,
      "inputs": [],
      "name": "ReturnAllLandList",
      "outputs": [
        {
          "internalType": "uint256[]",
          "name": "",
          "type": "uint256[]"
        }
      ],
      "payable": false,
      "stateMutability": "view",
      "type": "function"
    },
    {
      "constant": false,
      "inputs": [
        {
          "internalType": "uint256",
          "name": "_id",
          "type": "uint256"
        }
      ],
      "name": "verifyLand",
      "outputs": [],
      "payable": false,
      "stateMutability": "nonpayable",
      "type": "function"
    },
    {
      "constant": true,
      "inputs": [],
      "name": "ReturnUnverifiedLandList",
      "outputs": [
        {
          "internalType": "uint256[]",
          "name": "",
          "type": "uint256[]"
        }
      ],
      "payable": false,
      "stateMutability": "view",
      "type": "function"
    },
    {
      "constant": true,
      "inputs": [
        {
          "internalType": "uint256",
          "name": "id",
          "type": "uint256"
        }
      ],
      "name": "isLandVerified",
      "outputs": [
        {
          "internalType": "bool",
          "name": "",
          "type": "bool"
        }
      ],
      "payable": false,
      "stateMutability": "view",
      "type": "function"
    },
    {
      "constant": true,
      "inputs": [],
      "name": "myVerifiedLands",
      "outputs": [
        {
          "internalType": "uint256[]",
          "name": "",
          "type": "uint256[]"
        }
      ],
      "payable": false,
      "stateMutability": "view",
      "type": "function"
    },
    {
      "constant": true,
      "inputs": [
        {
          "internalType": "address",
          "name": "id",
          "type": "address"
        }
      ],
      "name": "myAllLands",
      "outputs": [
        {
          "internalType": "uint256[]",
          "name": "",
          "type": "uint256[]"
        }
      ],
      "payable": false,
      "stateMutability": "view",
      "type": "function"
    },
    {
      "constant": true,
      "inputs": [
        {
          "internalType": "uint256",
          "name": "_id",
          "type": "uint256"
        }
      ],
      "name": "viewLandDetails",
      "outputs": [
        {
          "components": [
            {
              "internalType": "address",
              "name": "oAddr",
              "type": "address"
            },
            {
              "internalType": "uint256",
              "name": "id",
              "type": "uint256"
            },
            {
              "internalType": "uint256",
              "name": "area",
              "type": "uint256"
            },
            {
              "internalType": "string",
              "name": "district",
              "type": "string"
            },
            {
              "internalType": "string",
              "name": "vdcMunicipality",
              "type": "string"
            },
            {
              "internalType": "uint256",
              "name": "wardNo",
              "type": "uint256"
            },
            {
              "internalType": "uint256",
              "name": "kittaNo",
              "type": "uint256"
            },
            {
              "internalType": "bool",
              "name": "isLandVerified",
              "type": "bool"
            }
          ],
          "internalType": "struct Estate.Landreg",
          "name": "",
          "type": "tuple"
        }
      ],
      "payable": false,
      "stateMutability": "view",
      "type": "function"
    }
  ],
  "bytecode": "0x608060405234801561001057600080fd5b50336000806101000a81548173ffffffffffffffffffffffffffffffffffffffff021916908373ffffffffffffffffffffffffffffffffffffffff160217905550613aab806100606000396000f3fe608060405234801561001057600080fd5b50600436106101cf5760003560e01c806373e2372f11610104578063d61ff68c116100a2578063f9c43bdf11610071578063f9c43bdf1461058d578063fe2d6173146105a9578063fe69c296146105dc578063ffb9dbba146105f8576101cf565b8063d61ff68c146104d4578063de11768814610508578063e261f1e514610538578063f147611d1461056f576101cf565b8063993a04b7116100de578063993a04b714610438578063ace417e014610456578063b00263d914610486578063d196ebf2146104a4576101cf565b806373e2372f146103b85780638e0fef76146103ec5780638e9c3b6514610408576101cf565b80632c154fdd116101715780633ead67b51161014b5780633ead67b5146103325780634d8131201461034e578063553a998d1461036a5780636cbf6cf814610388576101cf565b80632c154fdd146102c6578063348d8790146102e45780633cb301b614610302576101cf565b80631785f53c116101ad5780631785f53c1461023e5780631c9afd0f1461025a57806323393d771461027857806324d7806c14610296576101cf565b806303825d6c146101d457806307973ccf146101f0578063163f75221461020e575b600080fd5b6101ee60048036036101e99190810190612fb4565b610628565b005b6101f861091f565b60405161020591906137bf565b60405180910390f35b61022860048036036102239190810190612f8b565b610925565b60405161023591906136fe565b60405180910390f35b61025860048036036102539190810190612f8b565b61098c565b005b610262610c8d565b60405161026f91906137bf565b60405180910390f35b610280610c93565b60405161028d91906136dc565b60405180910390f35b6102b060048036036102ab9190810190612f8b565b610cfd565b6040516102bd91906136fe565b60405180910390f35b6102ce610d64565b6040516102db91906136dc565b60405180910390f35b6102ec610df9565b6040516102f991906136dc565b60405180910390f35b61031c6004803603610317919081019061305f565b610e63565b604051610329919061377b565b60405180910390f35b61034c60048036036103479190810190612f8b565b61106e565b005b61036860048036036103639190810190612f8b565b61110a565b005b61037261133b565b60405161037f91906136ba565b60405180910390f35b6103a2600480360361039d919081019061305f565b6113db565b6040516103af91906136fe565b60405180910390f35b6103d260048036036103cd9190810190612f8b565b611408565b6040516103e39594939291906137da565b60405180910390f35b61040660048036036104019190810190613088565b611626565b005b610422600480360361041d9190810190612f8b565b611878565b60405161042f9190613759565b60405180910390f35b610440611b17565b60405161044d91906135ab565b60405180910390f35b610470600480360361046b9190810190612f8b565b611b40565b60405161047d91906136fe565b60405180910390f35b61048e611b99565b60405161049b91906136ba565b60405180910390f35b6104be60048036036104b99190810190612f8b565b611c39565b6040516104cb91906136dc565b60405180910390f35b6104ee60048036036104e99190810190612f8b565b611cd0565b6040516104ff9594939291906135c6565b60405180910390f35b610522600480360361051d9190810190612f8b565b611efb565b60405161052f91906136fe565b60405180910390f35b610552600480360361054d919081019061305f565b611f65565b60405161056698979695949392919061362e565b60405180910390f35b61057761210a565b60405161058491906136ba565b60405180910390f35b6105a760048036036105a2919081019061305f565b6121aa565b005b6105c360048036036105be9190810190612f8b565b612389565b6040516105d39493929190613842565b60405180910390f35b6105f660048036036105f19190810190612fb4565b6126d5565b005b610612600480360361060d9190810190612f8b565b612acf565b60405161061f919061379d565b60405180910390f35b6000809054906101000a900473ffffffffffffffffffffffffffffffffffffffff1673ffffffffffffffffffffffffffffffffffffffff163373ffffffffffffffffffffffffffffffffffffffff161461068157600080fd5b600660008573ffffffffffffffffffffffffffffffffffffffff1673ffffffffffffffffffffffffffffffffffffffff16815260200190815260200160002060009054906101000a900460ff161561070e576040517f08c379a000000000000000000000000000000000000000000000000000000000815260040161070590613739565b60405180910390fd5b6001600081548092919060010191905055506001600660008673ffffffffffffffffffffffffffffffffffffffff1673ffffffffffffffffffffffffffffffffffffffff16815260200190815260200160002060006101000a81548160ff02191690831515021790555060056000600181526020019081526020016000208490806001815401808255809150509060018203906000526020600020016000909192909190916101000a81548173ffffffffffffffffffffffffffffffffffffffff021916908373ffffffffffffffffffffffffffffffffffffffff160217905550506040518060a0016040528060015481526020018573ffffffffffffffffffffffffffffffffffffffff16815260200184815260200183815260200182815250600460008673ffffffffffffffffffffffffffffffffffffffff1673ffffffffffffffffffffffffffffffffffffffff1681526020019081526020016000206000820151816000015560208201518160010160006101000a81548173ffffffffffffffffffffffffffffffffffffffff021916908373ffffffffffffffffffffffffffffffffffffffff16021790555060408201518160020190805190602001906108db929190612d7f565b5060608201518160030190805190602001906108f8929190612d7f565b506080820151816004019080519060200190610915929190612d7f565b5090505050505050565b60025481565b6000600a60008373ffffffffffffffffffffffffffffffffffffffff1673ffffffffffffffffffffffffffffffffffffffff16815260200190815260200160002060009054906101000a900460ff16156109825760019050610987565b600090505b919050565b6000809054906101000a900473ffffffffffffffffffffffffffffffffffffffff1673ffffffffffffffffffffffffffffffffffffffff163373ffffffffffffffffffffffffffffffffffffffff16146109e557600080fd5b600660008273ffffffffffffffffffffffffffffffffffffffff1673ffffffffffffffffffffffffffffffffffffffff16815260200190815260200160002060009054906101000a900460ff16610a71576040517f08c379a0000000000000000000000000000000000000000000000000000000008152600401610a6890613719565b60405180910390fd5b6000600660008373ffffffffffffffffffffffffffffffffffffffff1673ffffffffffffffffffffffffffffffffffffffff16815260200190815260200160002060006101000a81548160ff0219169083151502179055506000600560006001815260200190815260200160002080549050905060008090505b81811015610c88578273ffffffffffffffffffffffffffffffffffffffff1660056000600181526020019081526020016000208281548110610b2957fe5b9060005260206000200160009054906101000a900473ffffffffffffffffffffffffffffffffffffffff1673ffffffffffffffffffffffffffffffffffffffff161415610c7b5760056000600181526020019081526020016000206001830381548110610b9257fe5b9060005260206000200160009054906101000a900473ffffffffffffffffffffffffffffffffffffffff1660056000600181526020019081526020016000208281548110610bdc57fe5b9060005260206000200160006101000a81548173ffffffffffffffffffffffffffffffffffffffff021916908373ffffffffffffffffffffffffffffffffffffffff1602179055506005600060018152602001908152602001600020805480610c4157fe5b6001900381819060005260206000200160006101000a81549073ffffffffffffffffffffffffffffffffffffffff02191690559055610c88565b8080600101915050610aeb565b505050565b60035481565b6060600e600060018152602001908152602001600020805480602002602001604051908101604052809291908181526020018280548015610cf357602002820191906000526020600020905b815481526020019060010190808311610cdf575b5050505050905090565b6000600660008373ffffffffffffffffffffffffffffffffffffffff1673ffffffffffffffffffffffffffffffffffffffff16815260200190815260200160002060009054906101000a900460ff1615610d5a5760019050610d5f565b600090505b919050565b6060601060003373ffffffffffffffffffffffffffffffffffffffff1673ffffffffffffffffffffffffffffffffffffffff168152602001908152602001600020805480602002602001604051908101604052809291908181526020018280548015610def57602002820191906000526020600020905b815481526020019060010190808311610ddb575b5050505050905090565b6060600f600060018152602001908152602001600020805480602002602001604051908101604052809291908181526020018280548015610e5957602002820191906000526020600020905b815481526020019060010190808311610e45575b5050505050905090565b610e6b612dff565b600d6000838152602001908152602001600020604051806101000160405290816000820160009054906101000a900473ffffffffffffffffffffffffffffffffffffffff1673ffffffffffffffffffffffffffffffffffffffff1673ffffffffffffffffffffffffffffffffffffffff1681526020016001820154815260200160028201548152602001600382018054600181600116156101000203166002900480601f016020809104026020016040519081016040528092919081815260200182805460018160011615610100020316600290048015610f8d5780601f10610f6257610100808354040283529160200191610f8d565b820191906000526020600020905b815481529060010190602001808311610f7057829003601f168201915b50505050508152602001600482018054600181600116156101000203166002900480601f01602080910402602001604051908101604052809291908181526020018280546001816001161561010002031660029004801561102f5780601f106110045761010080835404028352916020019161102f565b820191906000526020600020905b81548152906001019060200180831161101257829003601f168201915b5050505050815260200160058201548152602001600682015481526020016007820160009054906101000a900460ff1615151515815250509050919050565b6000809054906101000a900473ffffffffffffffffffffffffffffffffffffffff1673ffffffffffffffffffffffffffffffffffffffff163373ffffffffffffffffffffffffffffffffffffffff16146110c757600080fd5b806000806101000a81548173ffffffffffffffffffffffffffffffffffffffff021916908373ffffffffffffffffffffffffffffffffffffffff16021790555050565b61111333610cfd565b61111c57600080fd5b6001600760008373ffffffffffffffffffffffffffffffffffffffff1673ffffffffffffffffffffffffffffffffffffffff16815260200190815260200160002060040160006101000a81548160ff0219169083151502179055506000600b60006001815260200190815260200160002080549050905060008090505b81811015611336578273ffffffffffffffffffffffffffffffffffffffff16600b60006001815260200190815260200160002082815481106111d757fe5b9060005260206000200160009054906101000a900473ffffffffffffffffffffffffffffffffffffffff1673ffffffffffffffffffffffffffffffffffffffff16141561132957600b600060018152602001908152602001600020600183038154811061124057fe5b9060005260206000200160009054906101000a900473ffffffffffffffffffffffffffffffffffffffff16600b600060018152602001908152602001600020828154811061128a57fe5b9060005260206000200160006101000a81548173ffffffffffffffffffffffffffffffffffffffff021916908373ffffffffffffffffffffffffffffffffffffffff160217905550600b6000600181526020019081526020016000208054806112ef57fe5b6001900381819060005260206000200160006101000a81549073ffffffffffffffffffffffffffffffffffffffff02191690559055611336565b8080600101915050611199565b505050565b606060096000600181526020019081526020016000208054806020026020016040519081016040528092919081815260200182805480156113d157602002820191906000526020600020905b8160009054906101000a900473ffffffffffffffffffffffffffffffffffffffff1673ffffffffffffffffffffffffffffffffffffffff1681526020019060010190808311611387575b5050505050905090565b6000600d600083815260200190815260200160002060070160009054906101000a900460ff169050919050565b60046020528060005260406000206000915090508060000154908060010160009054906101000a900473ffffffffffffffffffffffffffffffffffffffff1690806002018054600181600116156101000203166002900480601f0160208091040260200160405190810160405280929190818152602001828054600181600116156101000203166002900480156114e05780601f106114b5576101008083540402835291602001916114e0565b820191906000526020600020905b8154815290600101906020018083116114c357829003601f168201915b505050505090806003018054600181600116156101000203166002900480601f01602080910402602001604051908101604052809291908181526020018280546001816001161561010002031660029004801561157e5780601f106115535761010080835404028352916020019161157e565b820191906000526020600020905b81548152906001019060200180831161156157829003601f168201915b505050505090806004018054600181600116156101000203166002900480601f01602080910402602001604051908101604052809291908181526020018280546001816001161561010002031660029004801561161c5780601f106115f15761010080835404028352916020019161161c565b820191906000526020600020905b8154815290600101906020018083116115ff57829003601f168201915b5050505050905085565b61162f33611b40565b61163857600080fd5b60003390506003600081548092919060010191905055506040518061010001604052808273ffffffffffffffffffffffffffffffffffffffff168152602001600354815260200187815260200186815260200185815260200184815260200183815260200160001515815250600d6000600354815260200190815260200160002060008201518160000160006101000a81548173ffffffffffffffffffffffffffffffffffffffff021916908373ffffffffffffffffffffffffffffffffffffffff16021790555060208201518160010155604082015181600201556060820151816003019080519060200190611730929190612d7f565b50608082015181600401908051906020019061174d929190612d7f565b5060a0820151816005015560c0820151816006015560e08201518160070160006101000a81548160ff021916908315150217905550905050600c60003373ffffffffffffffffffffffffffffffffffffffff1673ffffffffffffffffffffffffffffffffffffffff1681526020019081526020016000206003549080600181540180825580915050906001820390600052602060002001600090919290919091505550600e6000600181526020019081526020016000206003549080600181540180825580915050906001820390600052602060002001600090919290919091505550600f6000600181526020019081526020016000206003549080600181540180825580915050906001820390600052602060002001600090919290919091505550505050505050565b611880612e5c565b600460008373ffffffffffffffffffffffffffffffffffffffff1673ffffffffffffffffffffffffffffffffffffffff1681526020019081526020016000206040518060a0016040529081600082015481526020016001820160009054906101000a900473ffffffffffffffffffffffffffffffffffffffff1673ffffffffffffffffffffffffffffffffffffffff1673ffffffffffffffffffffffffffffffffffffffff168152602001600282018054600181600116156101000203166002900480601f0160208091040260200160405190810160405280929190818152602001828054600181600116156101000203166002900480156119c35780601f10611998576101008083540402835291602001916119c3565b820191906000526020600020905b8154815290600101906020018083116119a657829003601f168201915b50505050508152602001600382018054600181600116156101000203166002900480601f016020809104026020016040519081016040528092919081815260200182805460018160011615610100020316600290048015611a655780601f10611a3a57610100808354040283529160200191611a65565b820191906000526020600020905b815481529060010190602001808311611a4857829003601f168201915b50505050508152602001600482018054600181600116156101000203166002900480601f016020809104026020016040519081016040528092919081815260200182805460018160011615610100020316600290048015611b075780601f10611adc57610100808354040283529160200191611b07565b820191906000526020600020905b815481529060010190602001808311611aea57829003601f168201915b5050505050815250509050919050565b60008060009054906101000a900473ffffffffffffffffffffffffffffffffffffffff16905090565b6000600760008373ffffffffffffffffffffffffffffffffffffffff1673ffffffffffffffffffffffffffffffffffffffff16815260200190815260200160002060040160009054906101000a900460ff169050919050565b60606005600060018152602001908152602001600020805480602002602001604051908101604052809291908181526020018280548015611c2f57602002820191906000526020600020905b8160009054906101000a900473ffffffffffffffffffffffffffffffffffffffff1673ffffffffffffffffffffffffffffffffffffffff1681526020019060010190808311611be5575b5050505050905090565b6060600c60008373ffffffffffffffffffffffffffffffffffffffff1673ffffffffffffffffffffffffffffffffffffffff168152602001908152602001600020805480602002602001604051908101604052809291908181526020018280548015611cc457602002820191906000526020600020905b815481526020019060010190808311611cb0575b50505050509050919050565b60076020528060005260406000206000915090508060000160009054906101000a900473ffffffffffffffffffffffffffffffffffffffff1690806001018054600181600116156101000203166002900480601f016020809104026020016040519081016040528092919081815260200182805460018160011615610100020316600290048015611da25780601f10611d7757610100808354040283529160200191611da2565b820191906000526020600020905b815481529060010190602001808311611d8557829003601f168201915b505050505090806002018054600181600116156101000203166002900480601f016020809104026020016040519081016040528092919081815260200182805460018160011615610100020316600290048015611e405780601f10611e1557610100808354040283529160200191611e40565b820191906000526020600020905b815481529060010190602001808311611e2357829003601f168201915b505050505090806003018054600181600116156101000203166002900480601f016020809104026020016040519081016040528092919081815260200182805460018160011615610100020316600290048015611ede5780601f10611eb357610100808354040283529160200191611ede565b820191906000526020600020905b815481529060010190602001808311611ec157829003601f168201915b5050505050908060040160009054906101000a900460ff16905085565b60008060009054906101000a900473ffffffffffffffffffffffffffffffffffffffff1673ffffffffffffffffffffffffffffffffffffffff168273ffffffffffffffffffffffffffffffffffffffff161415611f5b5760019050611f60565b600090505b919050565b600d6020528060005260406000206000915090508060000160009054906101000a900473ffffffffffffffffffffffffffffffffffffffff1690806001015490806002015490806003018054600181600116156101000203166002900480601f0160208091040260200160405190810160405280929190818152602001828054600181600116156101000203166002900480156120435780601f1061201857610100808354040283529160200191612043565b820191906000526020600020905b81548152906001019060200180831161202657829003601f168201915b505050505090806004018054600181600116156101000203166002900480601f0160208091040260200160405190810160405280929190818152602001828054600181600116156101000203166002900480156120e15780601f106120b6576101008083540402835291602001916120e1565b820191906000526020600020905b8154815290600101906020018083116120c457829003601f168201915b5050505050908060050154908060060154908060070160009054906101000a900460ff16905088565b6060600b6000600181526020019081526020016000208054806020026020016040519081016040528092919081815260200182805480156121a057602002820191906000526020600020905b8160009054906101000a900473ffffffffffffffffffffffffffffffffffffffff1673ffffffffffffffffffffffffffffffffffffffff1681526020019060010190808311612156575b5050505050905090565b6121b333610cfd565b6121bc57600080fd5b6001600d600083815260200190815260200160002060070160006101000a81548160ff02191690831515021790555060106000600d600084815260200190815260200160002060000160009054906101000a900473ffffffffffffffffffffffffffffffffffffffff1673ffffffffffffffffffffffffffffffffffffffff1673ffffffffffffffffffffffffffffffffffffffff1681526020019081526020016000208190806001815401808255809150509060018203906000526020600020016000909192909190915055506000600f60006001815260200190815260200160002080549050905060008090505b818110156123845782600f60006001815260200190815260200160002082815481106122d457fe5b9060005260206000200154141561237757600f600060018152602001908152602001600020600183038154811061230757fe5b9060005260206000200154600f600060018152602001908152602001600020828154811061233157fe5b9060005260206000200181905550600f60006001815260200190815260200160002080548061235c57fe5b60019003818190600052602060002001600090559055612384565b80806001019150506122ac565b505050565b600060608060606000809054906101000a900473ffffffffffffffffffffffffffffffffffffffff1673ffffffffffffffffffffffffffffffffffffffff163373ffffffffffffffffffffffffffffffffffffffff16146123e957600080fd5b600460008673ffffffffffffffffffffffffffffffffffffffff1673ffffffffffffffffffffffffffffffffffffffff16815260200190815260200160002060000154600460008773ffffffffffffffffffffffffffffffffffffffff1673ffffffffffffffffffffffffffffffffffffffff168152602001908152602001600020600201600460008873ffffffffffffffffffffffffffffffffffffffff1673ffffffffffffffffffffffffffffffffffffffff168152602001908152602001600020600301600460008973ffffffffffffffffffffffffffffffffffffffff1673ffffffffffffffffffffffffffffffffffffffff168152602001908152602001600020600401828054600181600116156101000203166002900480601f0160208091040260200160405190810160405280929190818152602001828054600181600116156101000203166002900480156125875780601f1061255c57610100808354040283529160200191612587565b820191906000526020600020905b81548152906001019060200180831161256a57829003601f168201915b50505050509250818054600181600116156101000203166002900480601f0160208091040260200160405190810160405280929190818152602001828054600181600116156101000203166002900480156126235780601f106125f857610100808354040283529160200191612623565b820191906000526020600020905b81548152906001019060200180831161260657829003601f168201915b50505050509150808054600181600116156101000203166002900480601f0160208091040260200160405190810160405280929190818152602001828054600181600116156101000203166002900480156126bf5780601f10612694576101008083540402835291602001916126bf565b820191906000526020600020905b8154815290600101906020018083116126a257829003601f168201915b5050505050905093509350935093509193509193565b600a60003373ffffffffffffffffffffffffffffffffffffffff1673ffffffffffffffffffffffffffffffffffffffff16815260200190815260200160002060009054906101000a900460ff161580156127795750600660003373ffffffffffffffffffffffffffffffffffffffff1673ffffffffffffffffffffffffffffffffffffffff16815260200190815260200160002060009054906101000a900460ff16155b80156127d257503373ffffffffffffffffffffffffffffffffffffffff166000809054906101000a900473ffffffffffffffffffffffffffffffffffffffff1673ffffffffffffffffffffffffffffffffffffffff1614155b6127db57600080fd5b6001600a60008673ffffffffffffffffffffffffffffffffffffffff1673ffffffffffffffffffffffffffffffffffffffff16815260200190815260200160002060006101000a81548160ff02191690831515021790555060026000815480929190600101919050555060096000600181526020019081526020016000208490806001815401808255809150509060018203906000526020600020016000909192909190916101000a81548173ffffffffffffffffffffffffffffffffffffffff021916908373ffffffffffffffffffffffffffffffffffffffff16021790555050600b6000600181526020019081526020016000208490806001815401808255809150509060018203906000526020600020016000909192909190916101000a81548173ffffffffffffffffffffffffffffffffffffffff021916908373ffffffffffffffffffffffffffffffffffffffff160217905550508360086000600254815260200190815260200160002060006101000a81548173ffffffffffffffffffffffffffffffffffffffff021916908373ffffffffffffffffffffffffffffffffffffffff1602179055506040518060a001604052808573ffffffffffffffffffffffffffffffffffffffff16815260200184815260200183815260200182815260200160001515815250600760008673ffffffffffffffffffffffffffffffffffffffff1673ffffffffffffffffffffffffffffffffffffffff16815260200190815260200160002060008201518160000160006101000a81548173ffffffffffffffffffffffffffffffffffffffff021916908373ffffffffffffffffffffffffffffffffffffffff1602179055506020820151816001019080519060200190612a6b929190612d7f565b506040820151816002019080519060200190612a88929190612d7f565b506060820151816003019080519060200190612aa5929190612d7f565b5060808201518160040160006101000a81548160ff02191690831515021790555090505050505050565b612ad7612ea1565b600760008373ffffffffffffffffffffffffffffffffffffffff1673ffffffffffffffffffffffffffffffffffffffff1681526020019081526020016000206040518060a00160405290816000820160009054906101000a900473ffffffffffffffffffffffffffffffffffffffff1673ffffffffffffffffffffffffffffffffffffffff1673ffffffffffffffffffffffffffffffffffffffff168152602001600182018054600181600116156101000203166002900480601f016020809104026020016040519081016040528092919081815260200182805460018160011615610100020316600290048015612c105780601f10612be557610100808354040283529160200191612c10565b820191906000526020600020905b815481529060010190602001808311612bf357829003601f168201915b50505050508152602001600282018054600181600116156101000203166002900480601f016020809104026020016040519081016040528092919081815260200182805460018160011615610100020316600290048015612cb25780601f10612c8757610100808354040283529160200191612cb2565b820191906000526020600020905b815481529060010190602001808311612c9557829003601f168201915b50505050508152602001600382018054600181600116156101000203166002900480601f016020809104026020016040519081016040528092919081815260200182805460018160011615610100020316600290048015612d545780601f10612d2957610100808354040283529160200191612d54565b820191906000526020600020905b815481529060010190602001808311612d3757829003601f168201915b505050505081526020016004820160009054906101000a900460ff1615151515815250509050919050565b828054600181600116156101000203166002900490600052602060002090601f016020900481019282601f10612dc057805160ff1916838001178555612dee565b82800160010185558215612dee579182015b82811115612ded578251825591602001919060010190612dd2565b5b509050612dfb9190612ee8565b5090565b604051806101000160405280600073ffffffffffffffffffffffffffffffffffffffff1681526020016000815260200160008152602001606081526020016060815260200160008152602001600081526020016000151581525090565b6040518060a0016040528060008152602001600073ffffffffffffffffffffffffffffffffffffffff1681526020016060815260200160608152602001606081525090565b6040518060a00160405280600073ffffffffffffffffffffffffffffffffffffffff1681526020016060815260200160608152602001606081526020016000151581525090565b612f0a91905b80821115612f06576000816000905550600101612eee565b5090565b90565b600081359050612f1c81613a3a565b92915050565b600082601f830112612f3357600080fd5b8135612f46612f41826138c9565b61389c565b91508082526020830160208301858383011115612f6257600080fd5b612f6d8382846139e7565b50505092915050565b600081359050612f8581613a51565b92915050565b600060208284031215612f9d57600080fd5b6000612fab84828501612f0d565b91505092915050565b60008060008060808587031215612fca57600080fd5b6000612fd887828801612f0d565b945050602085013567ffffffffffffffff811115612ff557600080fd5b61300187828801612f22565b935050604085013567ffffffffffffffff81111561301e57600080fd5b61302a87828801612f22565b925050606085013567ffffffffffffffff81111561304757600080fd5b61305387828801612f22565b91505092959194509250565b60006020828403121561307157600080fd5b600061307f84828501612f76565b91505092915050565b600080600080600060a086880312156130a057600080fd5b60006130ae88828901612f76565b955050602086013567ffffffffffffffff8111156130cb57600080fd5b6130d788828901612f22565b945050604086013567ffffffffffffffff8111156130f457600080fd5b61310088828901612f22565b935050606061311188828901612f76565b925050608061312288828901612f76565b9150509295509295909350565b600061313b838361315f565b60208301905092915050565b6000613153838361358d565b60208301905092915050565b6131688161399f565b82525050565b6131778161399f565b82525050565b600061318882613915565b613192818561395b565b935061319d836138f5565b8060005b838110156131ce5781516131b5888261312f565b97506131c083613941565b9250506001810190506131a1565b5085935050505092915050565b60006131e682613920565b6131f0818561396c565b93506131fb83613905565b8060005b8381101561322c5781516132138882613147565b975061321e8361394e565b9250506001810190506131ff565b5085935050505092915050565b613242816139b1565b82525050565b613251816139b1565b82525050565b600061326282613936565b61326c818561398e565b935061327c8185602086016139f6565b61328581613a29565b840191505092915050565b600061329b8261392b565b6132a5818561397d565b93506132b58185602086016139f6565b6132be81613a29565b840191505092915050565b60006132d48261392b565b6132de818561398e565b93506132ee8185602086016139f6565b6132f781613a29565b840191505092915050565b600061330f60228361398e565b91507f4e6f2061646d696e20776974682074686973206164647265737320657869737460008301527f732e0000000000000000000000000000000000000000000000000000000000006020830152604082019050919050565b600061337560268361398e565b91507f41646d696e20776974682074686973206164647265737320616c72656164792060008301527f65786973742e00000000000000000000000000000000000000000000000000006020830152604082019050919050565b600060a0830160008301516133e6600086018261358d565b5060208301516133f9602086018261315f565b50604083015184820360408601526134118282613290565b9150506060830151848203606086015261342b8282613290565b915050608083015184820360808601526134458282613290565b9150508091505092915050565b60006101008301600083015161346b600086018261315f565b50602083015161347e602086018261358d565b506040830151613491604086018261358d565b50606083015184820360608601526134a98282613290565b915050608083015184820360808601526134c38282613290565b91505060a08301516134d860a086018261358d565b5060c08301516134eb60c086018261358d565b5060e08301516134fe60e0860182613239565b508091505092915050565b600060a083016000830151613521600086018261315f565b50602083015184820360208601526135398282613290565b915050604083015184820360408601526135538282613290565b9150506060830151848203606086015261356d8282613290565b91505060808301516135826080860182613239565b508091505092915050565b613596816139dd565b82525050565b6135a5816139dd565b82525050565b60006020820190506135c0600083018461316e565b92915050565b600060a0820190506135db600083018861316e565b81810360208301526135ed81876132c9565b9050818103604083015261360181866132c9565b9050818103606083015261361581856132c9565b90506136246080830184613248565b9695505050505050565b600061010082019050613644600083018b61316e565b613651602083018a61359c565b61365e604083018961359c565b818103606083015261367081886132c9565b9050818103608083015261368481876132c9565b905061369360a083018661359c565b6136a060c083018561359c565b6136ad60e0830184613248565b9998505050505050505050565b600060208201905081810360008301526136d4818461317d565b905092915050565b600060208201905081810360008301526136f681846131db565b905092915050565b60006020820190506137136000830184613248565b92915050565b6000602082019050818103600083015261373281613302565b9050919050565b6000602082019050818103600083015261375281613368565b9050919050565b6000602082019050818103600083015261377381846133ce565b905092915050565b600060208201905081810360008301526137958184613452565b905092915050565b600060208201905081810360008301526137b78184613509565b905092915050565b60006020820190506137d4600083018461359c565b92915050565b600060a0820190506137ef600083018861359c565b6137fc602083018761316e565b818103604083015261380e81866132c9565b9050818103606083015261382281856132c9565b9050818103608083015261383681846132c9565b90509695505050505050565b6000608082019050613857600083018761359c565b81810360208301526138698186613257565b9050818103604083015261387d8185613257565b905081810360608301526138918184613257565b905095945050505050565b6000604051905081810181811067ffffffffffffffff821117156138bf57600080fd5b8060405250919050565b600067ffffffffffffffff8211156138e057600080fd5b601f19601f8301169050602081019050919050565b6000819050602082019050919050565b6000819050602082019050919050565b600081519050919050565b600081519050919050565b600081519050919050565b600081519050919050565b6000602082019050919050565b6000602082019050919050565b600082825260208201905092915050565b600082825260208201905092915050565b600082825260208201905092915050565b600082825260208201905092915050565b60006139aa826139bd565b9050919050565b60008115159050919050565b600073ffffffffffffffffffffffffffffffffffffffff82169050919050565b6000819050919050565b82818337600083830152505050565b60005b83811015613a145780820151818401526020810190506139f9565b83811115613a23576000848401525b50505050565b6000601f19601f8301169050919050565b613a438161399f565b8114613a4e57600080fd5b50565b613a5a816139dd565b8114613a6557600080fd5b5056fea365627a7a723158203fa26125ac5eb3ea843c080fb1590477e779e6870dd310642b764f941218e6ea6c6578706572696d656e74616cf564736f6c63430005100040",
  "source": "pragma solidity ^0.5.0;\r\npragma experimental ABIEncoderV2;\r\n\r\ncontract Estate {\r\n    address contractOwner;\r\n\r\n    constructor() public {\r\n        contractOwner = msg.sender;\r\n    }\r\n\r\n    struct Landreg {\r\n        address oAddr;\r\n        uint256 id;\r\n        uint256 area;\r\n        string district;\r\n        string vdcMunicipality;\r\n        uint256 wardNo;\r\n        uint256 kittaNo;\r\n        bool isLandVerified;\r\n    }\r\n\r\n    struct User {\r\n        address id;\r\n        string name;\r\n        string citizenshipNo;\r\n        string email;\r\n        bool isUserVerified;\r\n    }\r\n\r\n    struct Admin {\r\n        uint256 id;\r\n        address addr;\r\n        string name;\r\n        string district;\r\n        string vdcMunicipality;\r\n    }\r\n\r\n    uint256 adminCount;\r\n    uint256 public userCount;\r\n    uint256 public landsCount;\r\n\r\n    mapping(address => Admin) public AdminMapping;\r\n    mapping(uint256 => address[]) allAdminList;\r\n    mapping(address => bool) RegisteredAdminMapping;\r\n    mapping(address => User) public UserMapping;\r\n    mapping(uint256 => address) AllUsers;\r\n    mapping(uint256 => address[]) allUsersList;\r\n    mapping(address => bool) RegisteredUserMapping;\r\n    mapping(uint256 => address[]) UnverifiedUsersList; //new for UnverfdUser\r\n    //mapping(uint256 => address[]) RegisteresUserList; //new for UnverfddUser\r\n    mapping(address => uint256[]) MyLands;\r\n    mapping(uint256 => Landreg) public lands;\r\n    mapping(uint256 => uint256[]) allLandList;\r\n    mapping(uint256 => uint256[]) UnverifiedLandList; //new for UnverfdLand\r\n    mapping(address => uint256[]) MyVerifiedLandList;\r\n\r\n    modifier onlyOwner() {\r\n        require(msg.sender == contractOwner);\r\n        _;\r\n    }\r\n\r\n    function getter() public view returns (address) {\r\n        return contractOwner;\r\n    }\r\n\r\n    function isContractOwner(address _addr) public view returns (bool) {\r\n        if (_addr == contractOwner) return true;\r\n        else return false;\r\n    }\r\n\r\n    function changeContractOwner(address _addr) public onlyOwner {\r\n        contractOwner = _addr;\r\n    }\r\n\r\n    //-----------------------------------------------Admin-----------------------------------------------\r\n\r\n    function addAdmin(\r\n        address _addr,\r\n        string memory _name,\r\n        string memory _district,\r\n        string memory _vdcMunicipality\r\n    ) public onlyOwner {\r\n        require(\r\n            !RegisteredAdminMapping[_addr],\r\n            \"Admin with this address already exist.\"\r\n        );\r\n        //is it good to make contract owner the admin?\r\n        adminCount++;\r\n        RegisteredAdminMapping[_addr] = true;\r\n        allAdminList[1].push(_addr);\r\n        AdminMapping[_addr] = Admin({\r\n            id: adminCount,\r\n            addr: _addr,\r\n            name: _name,\r\n            district: _district,\r\n            vdcMunicipality: _vdcMunicipality\r\n        });\r\n    }\r\n\r\n    function ReturnAllAdminList() public view returns (address[] memory) {\r\n        return allAdminList[1];\r\n    }\r\n\r\n    function isAdmin(address _addr) public view returns (bool) {\r\n        if (RegisteredAdminMapping[_addr]) return true;\r\n        else return false;\r\n    }\r\n\r\n    function removeAdmin(address _addr) public onlyOwner {\r\n        require(\r\n            RegisteredAdminMapping[_addr],\r\n            \"No admin with this address exists.\"\r\n        );\r\n        RegisteredAdminMapping[_addr] = false;\r\n\r\n        uint256 l = allAdminList[1].length;\r\n        for (uint256 i = 0; i < l; i++) {\r\n            if (allAdminList[1][i] == _addr) {\r\n                allAdminList[1][i] = allAdminList[1][l - 1];\r\n                allAdminList[1].pop();\r\n                break;\r\n            }\r\n        }\r\n    }\r\n\r\n    function returnAdmin(address _addr)\r\n        public\r\n        view\r\n        onlyOwner\r\n        returns (\r\n            uint256,\r\n            string memory,\r\n            string memory,\r\n            string memory\r\n        )\r\n    {\r\n        return (\r\n            AdminMapping[_addr].id,\r\n            AdminMapping[_addr].name,\r\n            AdminMapping[_addr].district,\r\n            AdminMapping[_addr].vdcMunicipality\r\n        );\r\n    }\r\n\r\n    function viewAdminDetails(address _addr)\r\n        public\r\n        view\r\n        returns (Admin memory)\r\n    {\r\n        return AdminMapping[_addr];\r\n    }\r\n\r\n    //-----------------------------------------------User-----------------------------------------------\r\n\r\n    function isUserRegistered(address _addr) public view returns (bool) {\r\n        if (RegisteredUserMapping[_addr]) return true;\r\n        else return false;\r\n    }\r\n\r\n    function registerUser(\r\n        address _addr,\r\n        string memory _name,\r\n        string memory _citizenshipNo,\r\n        string memory _email\r\n    ) public {\r\n        require(\r\n            !RegisteredUserMapping[msg.sender] &&\r\n                !RegisteredAdminMapping[msg.sender] &&\r\n                (contractOwner != msg.sender)\r\n        );\r\n\r\n        RegisteredUserMapping[_addr] = true;\r\n        userCount++;\r\n        allUsersList[1].push(_addr);\r\n        UnverifiedUsersList[1].push(_addr); //new for UnverfdUser\r\n        AllUsers[userCount] = _addr;\r\n        UserMapping[_addr] = User({\r\n            id: _addr,\r\n            name: _name,\r\n            citizenshipNo: _citizenshipNo,\r\n            email: _email,\r\n            isUserVerified: false\r\n        });\r\n        //emit Registration(msg.sender);\r\n    }\r\n\r\n    function verifyUser(address _userId) public {\r\n        require(isAdmin(msg.sender));\r\n        UserMapping[_userId].isUserVerified = true;\r\n        //for removing verified users from unverified list\r\n        uint256 l = UnverifiedUsersList[1].length;\r\n        for (uint256 i = 0; i < l; i++) {\r\n            if (UnverifiedUsersList[1][i] == _userId) {\r\n                UnverifiedUsersList[1][i] = UnverifiedUsersList[1][l - 1];\r\n                UnverifiedUsersList[1].pop();\r\n                break;\r\n            }\r\n        }\r\n    }\r\n\r\n    function isUserVerified(address id) public view returns (bool) {\r\n        return UserMapping[id].isUserVerified;\r\n    }\r\n\r\n    function ReturnAllUserList() public view returns (address[] memory) {\r\n        return allUsersList[1];\r\n    }\r\n\r\n    //unverifiedUserlist\r\n    function ReturnUnverifiedUsersList()\r\n        public\r\n        view\r\n        returns (address[] memory)\r\n    {\r\n        return UnverifiedUsersList[1];\r\n    }\r\n\r\n    function viewUserDetails(address _addr) public view returns (User memory) {\r\n        return UserMapping[_addr];\r\n    }\r\n\r\n    //-----------------------------------------------Land-----------------------------------------------\r\n    function addLand(\r\n        uint256 _area,\r\n        string memory _district,\r\n        string memory _vdcMunicipality,\r\n        uint256 _wardNo,\r\n        uint256 _kittaNo\r\n    ) public {\r\n        require(isUserVerified(msg.sender));\r\n        address _addr = msg.sender;\r\n        landsCount++;\r\n        lands[landsCount] = Landreg({\r\n            oAddr: _addr,\r\n            id: landsCount,\r\n            area: _area,\r\n            district: _district,\r\n            vdcMunicipality: _vdcMunicipality,\r\n            wardNo: _wardNo,\r\n            kittaNo: _kittaNo,\r\n            isLandVerified: false\r\n        });\r\n        MyLands[msg.sender].push(landsCount);\r\n        allLandList[1].push(landsCount);\r\n        UnverifiedLandList[1].push(landsCount);\r\n        // emit AddingLand(landsCount);\r\n    }\r\n\r\n    function ReturnAllLandList() public view returns (uint256[] memory) {\r\n        return allLandList[1];\r\n    }\r\n\r\n    function verifyLand(uint256 _id) public {\r\n        require(isAdmin(msg.sender));\r\n        lands[_id].isLandVerified = true;\r\n        MyVerifiedLandList[lands[_id].oAddr].push(_id);\r\n        //for removing verified Land from UnverifiedLandList\r\n        uint256 l = UnverifiedLandList[1].length;\r\n        for (uint256 i = 0; i < l; i++) {\r\n            if (UnverifiedLandList[1][i] == _id) {\r\n                UnverifiedLandList[1][i] = UnverifiedLandList[1][l - 1];\r\n                UnverifiedLandList[1].pop();\r\n\r\n                break;\r\n            }\r\n        }\r\n    }\r\n\r\n    //UnverifiedLandList\r\n    function ReturnUnverifiedLandList() public view returns (uint256[] memory) {\r\n        return UnverifiedLandList[1];\r\n    }\r\n\r\n    function isLandVerified(uint256 id) public view returns (bool) {\r\n        return lands[id].isLandVerified;\r\n    }\r\n\r\n    function myVerifiedLands() public view returns (uint256[] memory) {\r\n        return MyVerifiedLandList[msg.sender];\r\n    }\r\n\r\n    function myAllLands(address id) public view returns (uint256[] memory) {\r\n        return MyLands[id];\r\n    }\r\n\r\n    function viewLandDetails(uint256 _id) public view returns (Landreg memory) {\r\n        return lands[_id];\r\n    }\r\n}\r\n",
  "sourcePath": "C:/Users/kusha/OneDrive/Desktop/minor/newminor/minor/contracts/Estate.sol",
  "compiler": {
    "name": "solc",
    "version": "0.5.16+commit.9c3226ce.Emscripten.clang"
  },
  "schemaVersion": "3.2.3",
  "updatedAt": "2022-04-18T09:35:15.480Z",
  "networkType": "ethereum",
  "devdoc": {
    "methods": {}
  },
  "userdoc": {
    "methods": {}
  }
}